{
  "_format": "hh-sol-artifact-1",
  "contractName": "L1StandardBridge",
  "sourceName": "contracts/L1/messaging/L1StandardBridge.sol",
  "abi": [
    {
      "inputs": [],
      "stateMutability": "nonpayable",
      "type": "constructor"
    },
    {
      "anonymous": false,
      "inputs": [
        {
          "indexed": true,
          "internalType": "address",
          "name": "_l1Token",
          "type": "address"
        },
        {
          "indexed": true,
          "internalType": "address",
          "name": "_l2Token",
          "type": "address"
        },
        {
          "indexed": true,
          "internalType": "address",
          "name": "_from",
          "type": "address"
        },
        {
          "indexed": false,
          "internalType": "address",
          "name": "_to",
          "type": "address"
        },
        {
          "indexed": false,
          "internalType": "uint256",
          "name": "_amount",
          "type": "uint256"
        },
        {
          "indexed": false,
          "internalType": "bytes",
          "name": "_data",
          "type": "bytes"
        }
      ],
      "name": "ERC20DepositInitiated",
      "type": "event"
    },
    {
      "anonymous": false,
      "inputs": [
        {
          "indexed": true,
          "internalType": "address",
          "name": "_l1Token",
          "type": "address"
        },
        {
          "indexed": true,
          "internalType": "address",
          "name": "_l2Token",
          "type": "address"
        },
        {
          "indexed": true,
          "internalType": "address",
          "name": "_from",
          "type": "address"
        },
        {
          "indexed": false,
          "internalType": "address",
          "name": "_to",
          "type": "address"
        },
        {
          "indexed": false,
          "internalType": "uint256",
          "name": "_amount",
          "type": "uint256"
        },
        {
          "indexed": false,
          "internalType": "bytes",
          "name": "_data",
          "type": "bytes"
        }
      ],
      "name": "ERC20WithdrawalFinalized",
      "type": "event"
    },
    {
      "anonymous": false,
      "inputs": [
        {
          "indexed": true,
          "internalType": "address",
          "name": "_from",
          "type": "address"
        },
        {
          "indexed": true,
          "internalType": "address",
          "name": "_to",
          "type": "address"
        },
        {
          "indexed": false,
          "internalType": "uint256",
          "name": "_amount",
          "type": "uint256"
        },
        {
          "indexed": false,
          "internalType": "bytes",
          "name": "_data",
          "type": "bytes"
        }
      ],
      "name": "NativeTokenDepositInitiated",
      "type": "event"
    },
    {
      "anonymous": false,
      "inputs": [
        {
          "indexed": true,
          "internalType": "address",
          "name": "_from",
          "type": "address"
        },
        {
          "indexed": true,
          "internalType": "address",
          "name": "_to",
          "type": "address"
        },
        {
          "indexed": false,
          "internalType": "uint256",
          "name": "_amount",
          "type": "uint256"
        },
        {
          "indexed": false,
          "internalType": "bytes",
          "name": "_data",
          "type": "bytes"
        }
      ],
      "name": "NativeTokenWithdrawalFinalized",
      "type": "event"
    },
    {
      "inputs": [],
      "name": "currentDepositInfoHash",
      "outputs": [
        {
          "internalType": "bytes32",
          "name": "",
          "type": "bytes32"
        }
      ],
      "stateMutability": "view",
      "type": "function"
    },
    {
      "inputs": [
        {
          "internalType": "address",
          "name": "_l1Token",
          "type": "address"
        },
        {
          "internalType": "address",
          "name": "_l2Token",
          "type": "address"
        },
        {
          "internalType": "uint256",
          "name": "_amount",
          "type": "uint256"
        },
        {
          "internalType": "uint32",
          "name": "_l2Gas",
          "type": "uint32"
        },
        {
          "internalType": "bytes",
          "name": "_data",
          "type": "bytes"
        }
      ],
      "name": "depositERC20",
      "outputs": [],
      "stateMutability": "nonpayable",
      "type": "function"
    },
    {
      "inputs": [
        {
          "internalType": "address",
          "name": "_l1Token",
          "type": "address"
        },
        {
          "internalType": "address",
          "name": "_l2Token",
          "type": "address"
        },
        {
          "internalType": "address",
          "name": "_to",
          "type": "address"
        },
        {
          "internalType": "uint256",
          "name": "_amount",
          "type": "uint256"
        },
        {
          "internalType": "uint32",
          "name": "_l2Gas",
          "type": "uint32"
        },
        {
          "internalType": "bytes",
          "name": "_data",
          "type": "bytes"
        }
      ],
      "name": "depositERC20To",
      "outputs": [],
      "stateMutability": "nonpayable",
      "type": "function"
    },
    {
      "inputs": [
        {
          "internalType": "uint32",
          "name": "_l2Gas",
          "type": "uint32"
        },
        {
          "internalType": "bytes",
          "name": "_data",
          "type": "bytes"
        }
      ],
      "name": "depositNativeToken",
      "outputs": [],
      "stateMutability": "payable",
      "type": "function"
    },
    {
      "inputs": [
        {
          "internalType": "address",
          "name": "_to",
          "type": "address"
        },
        {
          "internalType": "uint32",
          "name": "_l2Gas",
          "type": "uint32"
        },
        {
          "internalType": "bytes",
          "name": "_data",
          "type": "bytes"
        }
      ],
      "name": "depositNativeTokenTo",
      "outputs": [],
      "stateMutability": "payable",
      "type": "function"
    },
    {
      "inputs": [
        {
          "internalType": "address",
          "name": "",
          "type": "address"
        },
        {
          "internalType": "address",
          "name": "",
          "type": "address"
        }
      ],
      "name": "deposits",
      "outputs": [
        {
          "internalType": "uint256",
          "name": "",
          "type": "uint256"
        }
      ],
      "stateMutability": "view",
      "type": "function"
    },
    {
      "inputs": [],
      "name": "donateNativeToken",
      "outputs": [],
      "stateMutability": "payable",
      "type": "function"
    },
    {
      "inputs": [
        {
          "internalType": "address",
          "name": "_l1Token",
          "type": "address"
        },
        {
          "internalType": "address",
          "name": "_l2Token",
          "type": "address"
        },
        {
          "internalType": "address",
          "name": "_from",
          "type": "address"
        },
        {
          "internalType": "address",
          "name": "_to",
          "type": "address"
        },
        {
          "internalType": "uint256",
          "name": "_amount",
          "type": "uint256"
        },
        {
          "internalType": "bytes",
          "name": "_data",
          "type": "bytes"
        }
      ],
      "name": "finalizeERC20Withdrawal",
      "outputs": [],
      "stateMutability": "nonpayable",
      "type": "function"
    },
    {
      "inputs": [
        {
          "internalType": "address",
          "name": "_from",
          "type": "address"
        },
        {
          "internalType": "address",
          "name": "_to",
          "type": "address"
        },
        {
          "internalType": "uint256",
          "name": "_amount",
          "type": "uint256"
        },
        {
          "internalType": "bytes",
          "name": "_data",
          "type": "bytes"
        }
      ],
      "name": "finalizeNativeTokenWithdrawal",
      "outputs": [],
      "stateMutability": "nonpayable",
      "type": "function"
    },
    {
      "inputs": [
        {
          "internalType": "address",
          "name": "_l1messenger",
          "type": "address"
        },
        {
          "internalType": "address",
          "name": "_l2TokenBridge",
          "type": "address"
        }
      ],
      "name": "initialize",
      "outputs": [],
      "stateMutability": "nonpayable",
      "type": "function"
    },
    {
      "inputs": [],
      "name": "l2TokenBridge",
      "outputs": [
        {
          "internalType": "address",
          "name": "",
          "type": "address"
        }
      ],
      "stateMutability": "view",
      "type": "function"
    },
    {
      "inputs": [],
      "name": "lastHashUpdateBlock",
      "outputs": [
        {
          "internalType": "uint256",
          "name": "",
          "type": "uint256"
        }
      ],
      "stateMutability": "view",
      "type": "function"
    },
    {
      "inputs": [],
      "name": "messenger",
      "outputs": [
        {
          "internalType": "address",
          "name": "",
          "type": "address"
        }
      ],
      "stateMutability": "view",
      "type": "function"
    },
    {
      "inputs": [],
      "name": "priorDepositInfoHash",
      "outputs": [
        {
          "internalType": "bytes32",
          "name": "",
          "type": "bytes32"
        }
      ],
      "stateMutability": "view",
      "type": "function"
    },
    {
      "stateMutability": "payable",
      "type": "receive"
    }
  ],
  "bytecode": "0x608060405234801561001057600080fd5b50600080546001600160a01b031916905561185e806100306000396000f3fe6080604052600436106100e15760003560e01c80638f601f661161007f578063a9f9e67511610059578063a9f9e675146102c1578063b1c78f17146102e1578063cd38698314610158578063f8fe09a3146102f457600080fd5b80638f601f661461025357806391c49bf81461028b578063a5ab6190146102ab57600080fd5b806350cc72d2116100bb57806350cc72d2146101dc57806358a997f6146101ef57806359326e6f1461020f578063838b25201461023357600080fd5b80630f6a78691461015f5780633cb747bf1461017f578063485cc955146101bc57600080fd5b3661015a57333b1561013a5760405162461bcd60e51b815260206004820152600f60248201527f4163636f756e74206e6f7420454f41000000000000000000000000000000000060448201526064015b60405180910390fd5b61015833336213d6206040518060200160405280600081525061030a565b005b600080fd5b34801561016b57600080fd5b5061015861017a366004611274565b610451565b34801561018b57600080fd5b5060005461019f906001600160a01b031681565b6040516001600160a01b0390911681526020015b60405180910390f35b3480156101c857600080fd5b506101586101d73660046112e7565b61075f565b6101586101ea366004611339565b610824565b3480156101fb57600080fd5b5061015861020a36600461139c565b61086c565b34801561021b57600080fd5b5061022560055481565b6040519081526020016101b3565b34801561023f57600080fd5b5061015861024e36600461141f565b6108d3565b34801561025f57600080fd5b5061022561026e3660046112e7565b600260209081526000928352604080842090915290825290205481565b34801561029757600080fd5b5060015461019f906001600160a01b031681565b3480156102b757600080fd5b5061022560045481565b3480156102cd57600080fd5b506101586102dc3660046114b5565b6108ec565b6101586102ef36600461152e565b610b65565b34801561030057600080fd5b5061022560035481565b600063662a633a60e01b600073420000000000000000000000000000000000002387873487604051602401610344969594939291906115f7565b604080517fffffffffffffffffffffffffffffffffffffffffffffffffffffffffffffffe08184030181529190526020810180517bffffffffffffffffffffffffffffffffffffffffffffffffffffffff167fffffffff00000000000000000000000000000000000000000000000000000000909316929092179091526001549091506103db906001600160a01b03168483610bfb565b6103fd6000734200000000000000000000000000000000000023878734610c76565b836001600160a01b0316856001600160a01b03167ff1e6647a55a4ecbf748c8aaf6d27773d9a2d21d16ca35ee5fbb529b4a631062d3485604051610442929190611645565b60405180910390a35050505050565b6001546001600160a01b031661046f6000546001600160a01b031690565b6001600160a01b0316336001600160a01b0316146104f55760405162461bcd60e51b815260206004820152602e60248201527f4f564d5f58434841494e3a206d657373656e67657220636f6e7472616374207560448201527f6e61757468656e746963617465640000000000000000000000000000000000006064820152608401610131565b806001600160a01b03166105116000546001600160a01b031690565b6001600160a01b0316636e296e456040518163ffffffff1660e01b815260040160206040518083038186803b15801561054957600080fd5b505afa15801561055d573d6000803e3d6000fd5b505050506040513d601f19601f82011682018060405250810190610581919061165e565b6001600160a01b0316146105fd5760405162461bcd60e51b815260206004820152603060248201527f4f564d5f58434841494e3a2077726f6e672073656e646572206f662063726f7360448201527f732d646f6d61696e206d657373616765000000000000000000000000000000006064820152608401610131565b604080516000808252602082019092526001600160a01b038716908690604051610627919061167b565b60006040518083038185875af1925050503d8060008114610664576040519150601f19603f3d011682016040523d82523d6000602084013e610669565b606091505b50509050806107075760405162461bcd60e51b8152602060048201526044602482018190527f5472616e7366657248656c7065723a3a736166655472616e736665724e617469908201527f7665546f6b656e3a204e6174697665546f6b656e207472616e7366657220666160648201527f696c656400000000000000000000000000000000000000000000000000000000608482015260a401610131565b856001600160a01b0316876001600160a01b03167f3f1eed6f7f293b677b5cd65d3bc95380be434147c85b33a317056e088f84a59a87878760405161074e939291906116e0565b60405180910390a350505050505050565b6000546001600160a01b0316156107de5760405162461bcd60e51b815260206004820152602660248201527f436f6e74726163742068617320616c7265616479206265656e20696e6974696160448201527f6c697a65642e00000000000000000000000000000000000000000000000000006064820152608401610131565b600080546001600160a01b039384167fffffffffffffffffffffffff00000000000000000000000000000000000000009182161790915560018054929093169116179055565b61086633858585858080601f01602080910402602001604051908101604052809392919081815260200183838082843760009201919091525061030a92505050565b50505050565b333b156108bb5760405162461bcd60e51b815260206004820152600f60248201527f4163636f756e74206e6f7420454f4100000000000000000000000000000000006044820152606401610131565b6108cb8686333388888888610ce8565b505050505050565b6108e38787338888888888610ce8565b50505050505050565b6001546001600160a01b031661090a6000546001600160a01b031690565b6001600160a01b0316336001600160a01b0316146109905760405162461bcd60e51b815260206004820152602e60248201527f4f564d5f58434841494e3a206d657373656e67657220636f6e7472616374207560448201527f6e61757468656e746963617465640000000000000000000000000000000000006064820152608401610131565b806001600160a01b03166109ac6000546001600160a01b031690565b6001600160a01b0316636e296e456040518163ffffffff1660e01b815260040160206040518083038186803b1580156109e457600080fd5b505afa1580156109f8573d6000803e3d6000fd5b505050506040513d601f19601f82011682018060405250810190610a1c919061165e565b6001600160a01b031614610a985760405162461bcd60e51b815260206004820152603060248201527f4f564d5f58434841494e3a2077726f6e672073656e646572206f662063726f7360448201527f732d646f6d61696e206d657373616765000000000000000000000000000000006064820152608401610131565b6001600160a01b038089166000908152600260209081526040808320938b1683529290522054610ac9908590611732565b6001600160a01b03808a166000818152600260209081526040808320948d1683529390529190912091909155610b00908686610e85565b856001600160a01b0316876001600160a01b0316896001600160a01b03167f3ceee06c1e37648fcbb6ed52e17b3e1f275a1f8c7b22a84b2b84732431e046b388888888604051610b539493929190611749565b60405180910390a45050505050505050565b333b15610bb45760405162461bcd60e51b815260206004820152600f60248201527f4163636f756e74206e6f7420454f4100000000000000000000000000000000006044820152606401610131565b610bf633338585858080601f01602080910402602001604051908101604052809392919081815260200183838082843760009201919091525061030a92505050565b505050565b6000546040517f3dbb202b0000000000000000000000000000000000000000000000000000000081526001600160a01b0390911690633dbb202b90610c489086908590879060040161177c565b600060405180830381600087803b158015610c6257600080fd5b505af11580156108e3573d6000803e3d6000fd5b600554431115610c87576004546003555b60048054604080516020808201939093526001600160a01b0398891681830152968816606088015294871660808701529290951660a085015260c0808501919091528251808503909101815260e09093019091528151910120905543600555565b610cfd6001600160a01b038916873087610f4c565b600063662a633a60e01b89898989898888604051602401610d2497969594939291906117b4565b604080517fffffffffffffffffffffffffffffffffffffffffffffffffffffffffffffffe08184030181529190526020810180517bffffffffffffffffffffffffffffffffffffffffffffffffffffffff167fffffffff0000000000000000000000000000000000000000000000000000000090931692909217909152600154909150610dbb906001600160a01b03168583610bfb565b6001600160a01b03808a166000908152600260209081526040808320938c1683529290522054610dec908690611804565b6001600160a01b03808b166000908152600260209081526040808320938d1683529290522055610e1f8989898989610c76565b866001600160a01b0316886001600160a01b03168a6001600160a01b03167f718594027abd4eaed59f95162563e0cc6d0e8d5b86b1c7be8b1b0ac3343d039689898888604051610e729493929190611749565b60405180910390a4505050505050505050565b6040516001600160a01b038316602482015260448101829052610bf69084907fa9059cbb00000000000000000000000000000000000000000000000000000000906064015b604080517fffffffffffffffffffffffffffffffffffffffffffffffffffffffffffffffe08184030181529190526020810180517bffffffffffffffffffffffffffffffffffffffffffffffffffffffff167fffffffff0000000000000000000000000000000000000000000000000000000090931692909217909152610f9d565b6040516001600160a01b03808516602483015283166044820152606481018290526108669085907f23b872dd0000000000000000000000000000000000000000000000000000000090608401610eca565b6000610ff2826040518060400160405280602081526020017f5361666545524332303a206c6f772d6c6576656c2063616c6c206661696c6564815250856001600160a01b03166110829092919063ffffffff16565b805190915015610bf65780806020019051810190611010919061181c565b610bf65760405162461bcd60e51b815260206004820152602a60248201527f5361666545524332303a204552433230206f7065726174696f6e20646964206e60448201527f6f742073756363656564000000000000000000000000000000000000000000006064820152608401610131565b6060611091848460008561109b565b90505b9392505050565b6060824710156111135760405162461bcd60e51b815260206004820152602660248201527f416464726573733a20696e73756666696369656e742062616c616e636520666f60448201527f722063616c6c00000000000000000000000000000000000000000000000000006064820152608401610131565b843b6111615760405162461bcd60e51b815260206004820152601d60248201527f416464726573733a2063616c6c20746f206e6f6e2d636f6e74726163740000006044820152606401610131565b600080866001600160a01b0316858760405161117d919061167b565b60006040518083038185875af1925050503d80600081146111ba576040519150601f19603f3d011682016040523d82523d6000602084013e6111bf565b606091505b50915091506111cf8282866111da565b979650505050505050565b606083156111e9575081611094565b8251156111f95782518084602001fd5b8160405162461bcd60e51b8152600401610131919061183e565b6001600160a01b038116811461122857600080fd5b50565b60008083601f84011261123d57600080fd5b50813567ffffffffffffffff81111561125557600080fd5b60208301915083602082850101111561126d57600080fd5b9250929050565b60008060008060006080868803121561128c57600080fd5b853561129781611213565b945060208601356112a781611213565b935060408601359250606086013567ffffffffffffffff8111156112ca57600080fd5b6112d68882890161122b565b969995985093965092949392505050565b600080604083850312156112fa57600080fd5b823561130581611213565b9150602083013561131581611213565b809150509250929050565b803563ffffffff8116811461133457600080fd5b919050565b6000806000806060858703121561134f57600080fd5b843561135a81611213565b935061136860208601611320565b9250604085013567ffffffffffffffff81111561138457600080fd5b6113908782880161122b565b95989497509550505050565b60008060008060008060a087890312156113b557600080fd5b86356113c081611213565b955060208701356113d081611213565b9450604087013593506113e560608801611320565b9250608087013567ffffffffffffffff81111561140157600080fd5b61140d89828a0161122b565b979a9699509497509295939492505050565b600080600080600080600060c0888a03121561143a57600080fd5b873561144581611213565b9650602088013561145581611213565b9550604088013561146581611213565b94506060880135935061147a60808901611320565b925060a088013567ffffffffffffffff81111561149657600080fd5b6114a28a828b0161122b565b989b979a50959850939692959293505050565b600080600080600080600060c0888a0312156114d057600080fd5b87356114db81611213565b965060208801356114eb81611213565b955060408801356114fb81611213565b9450606088013561150b81611213565b93506080880135925060a088013567ffffffffffffffff81111561149657600080fd5b60008060006040848603121561154357600080fd5b61154c84611320565b9250602084013567ffffffffffffffff81111561156857600080fd5b6115748682870161122b565b9497909650939450505050565b60005b8381101561159c578181015183820152602001611584565b838111156108665750506000910152565b600081518084526115c5816020860160208601611581565b601f017fffffffffffffffffffffffffffffffffffffffffffffffffffffffffffffffe0169290920160200192915050565b60006001600160a01b0380891683528088166020840152808716604084015280861660608401525083608083015260c060a083015261163960c08301846115ad565b98975050505050505050565b82815260406020820152600061109160408301846115ad565b60006020828403121561167057600080fd5b815161109481611213565b6000825161168d818460208701611581565b9190910192915050565b8183528181602085013750600060208284010152600060207fffffffffffffffffffffffffffffffffffffffffffffffffffffffffffffffe0601f840116840101905092915050565b8381526040602082015260006116fa604083018486611697565b95945050505050565b7f4e487b7100000000000000000000000000000000000000000000000000000000600052601160045260246000fd5b60008282101561174457611744611703565b500390565b6001600160a01b0385168152836020820152606060408201526000611772606083018486611697565b9695505050505050565b6001600160a01b038416815260606020820152600061179e60608301856115ad565b905063ffffffff83166040830152949350505050565b60006001600160a01b03808a1683528089166020840152808816604084015280871660608401525084608083015260c060a08301526117f760c083018486611697565b9998505050505050505050565b6000821982111561181757611817611703565b500190565b60006020828403121561182e57600080fd5b8151801515811461109457600080fd5b60208152600061109460208301846115ad56fea164736f6c6343000809000a",
  "linkReferences": {},
  "deployedLinkReferences": {}
}